:100000000C9434000C9449000C9449000C94490061
:100010000C9449000C9449000C9449000C9449003C
:100020000C9449000C9449000C9449000C9449002C
:100030000C9449000C9449000C9449000C9449001C
:100040000C9449000C9449000C9449000C9449000C
:100050000C9449000C9449000C9449000C944900FC
:100060000C9449000C94490011241FBECFEFD8E036
:10007000DEBFCDBF11E0A0E0B1E0E8EFF0E002C0EC
:1000800005900D92A031B107D9F70E946A000C9437
:100090007A000C9400001092C50087E68093C4009B
:1000A00088E08093C10086E08093C200089590911B
:1000B000C00095FFFCCF8093C6000895CF93DF93D7
:1000C000EC018991811103C0DF91CF9108950E94C5
:1000D0005700F7CF0E944B0080E091E00E945E0045
:1000E0002FEF83ED90E3215080409040E1F700C076
:0800F0000000F2CFF894FFCFED
:1000F80048656C6C6F2C20576F726C64210D0A0078
:00000001FF
